{
  "_format": "hh-sol-artifact-1",
  "contractName": "Image",
  "sourceName": "contracts/Image.sol",
  "abi": [
    {
      "inputs": [],
      "stateMutability": "nonpayable",
      "type": "constructor"
    },
    {
      "inputs": [
        {
          "internalType": "uint256",
          "name": "id",
          "type": "uint256"
        }
      ],
      "name": "getImage",
      "outputs": [
        {
          "components": [
            {
              "internalType": "string",
              "name": "name",
              "type": "string"
            },
            {
              "internalType": "string",
              "name": "url",
              "type": "string"
            },
            {
              "internalType": "address",
              "name": "uploader",
              "type": "address"
            },
            {
              "internalType": "uint256",
              "name": "likes",
              "type": "uint256"
            }
          ],
          "internalType": "struct Image.ImageStruct",
          "name": "",
          "type": "tuple"
        }
      ],
      "stateMutability": "view",
      "type": "function"
    },
    {
      "inputs": [],
      "name": "getImages",
      "outputs": [
        {
          "internalType": "string[]",
          "name": "",
          "type": "string[]"
        },
        {
          "internalType": "address[]",
          "name": "",
          "type": "address[]"
        },
        {
          "internalType": "string[]",
          "name": "",
          "type": "string[]"
        },
        {
          "internalType": "uint256[]",
          "name": "",
          "type": "uint256[]"
        }
      ],
      "stateMutability": "view",
      "type": "function"
    },
    {
      "inputs": [],
      "name": "getTotalImages",
      "outputs": [
        {
          "internalType": "uint256",
          "name": "",
          "type": "uint256"
        }
      ],
      "stateMutability": "view",
      "type": "function"
    },
    {
      "inputs": [
        {
          "internalType": "uint256",
          "name": "",
          "type": "uint256"
        }
      ],
      "name": "images",
      "outputs": [
        {
          "internalType": "string",
          "name": "name",
          "type": "string"
        },
        {
          "internalType": "string",
          "name": "url",
          "type": "string"
        },
        {
          "internalType": "address",
          "name": "uploader",
          "type": "address"
        },
        {
          "internalType": "uint256",
          "name": "likes",
          "type": "uint256"
        }
      ],
      "stateMutability": "view",
      "type": "function"
    },
    {
      "inputs": [
        {
          "internalType": "uint256",
          "name": "id",
          "type": "uint256"
        }
      ],
      "name": "likeImage",
      "outputs": [],
      "stateMutability": "nonpayable",
      "type": "function"
    },
    {
      "inputs": [
        {
          "internalType": "string",
          "name": "name",
          "type": "string"
        },
        {
          "internalType": "string",
          "name": "url",
          "type": "string"
        }
      ],
      "name": "uploadImage",
      "outputs": [
        {
          "internalType": "uint256",
          "name": "id",
          "type": "uint256"
        }
      ],
      "stateMutability": "nonpayable",
      "type": "function"
    }
  ],
  "bytecode": "0x60806040523480156200001157600080fd5b506200005d6040518060400160405280601b81526020017f496d61676520636f6e747261637420636f6e73747275637465642100000000008152506200006360201b62000a171760201c565b620001f7565b62000103816040516024016200007a919062000170565b6040516020818303038152906040527f41304fac000000000000000000000000000000000000000000000000000000007bffffffffffffffffffffffffffffffffffffffffffffffffffffffff19166020820180517bffffffffffffffffffffffffffffffffffffffffffffffffffffffff83818316178352505050506200010660201b60201c565b50565b60008151905060006a636f6e736f6c652e6c6f679050602083016000808483855afa5050505050565b60006200013c8262000194565b6200014881856200019f565b93506200015a818560208601620001b0565b6200016581620001e6565b840191505092915050565b600060208201905081810360008301526200018c81846200012f565b905092915050565b600081519050919050565b600082825260208201905092915050565b60005b83811015620001d0578082015181840152602081019050620001b3565b83811115620001e0576000848401525b50505050565b6000601f19601f8301169050919050565b61140580620002076000396000f3fe608060405234801561001057600080fd5b50600436106100625760003560e01c806311498334146100675780632607aafa1461008857806384856482146100b85780639a4661f8146100eb578063a91b831414610109578063f0e2e50b14610139575b600080fd5b61006f610155565b60405161007f9493929190610f59565b60405180910390f35b6100a2600480360381019061009d9190610ca3565b610608565b6040516100af919061102f565b60405180910390f35b6100d260048036038101906100cd9190610ca3565b6107bf565b6040516100e29493929190610fdc565b60405180910390f35b6100f361091f565b6040516101009190611051565b60405180910390f35b610123600480360381019061011e9190610c37565b610928565b6040516101309190611051565b60405180910390f35b610153600480360381019061014e9190610ca3565b6109e0565b005b6060806060806000805467ffffffffffffffff81111561019e577f4e487b7100000000000000000000000000000000000000000000000000000000600052604160045260246000fd5b6040519080825280602002602001820160405280156101d157816020015b60608152602001906001900390816101bc5790505b5090506000805467ffffffffffffffff811115610217577f4e487b7100000000000000000000000000000000000000000000000000000000600052604160045260246000fd5b6040519080825280602002602001820160405280156102455781602001602082028036833780820191505090505b5090506000805467ffffffffffffffff81111561028b577f4e487b7100000000000000000000000000000000000000000000000000000000600052604160045260246000fd5b6040519080825280602002602001820160405280156102be57816020015b60608152602001906001900390816102a95790505b5090506000805467ffffffffffffffff811115610304577f4e487b7100000000000000000000000000000000000000000000000000000000600052604160045260246000fd5b6040519080825280602002602001820160405280156103325781602001602082028036833780820191505090505b50905060005b6000548110156105f15760006001600083815260200190815260200160002090508060000180546103689061126e565b80601f01602080910402602001604051908101604052809291908181526020018280546103949061126e565b80156103e15780601f106103b6576101008083540402835291602001916103e1565b820191906000526020600020905b8154815290600101906020018083116103c457829003601f168201915b505050505086838151811061041f577f4e487b7100000000000000000000000000000000000000000000000000000000600052603260045260246000fd5b60200260200101819052508060020160009054906101000a900473ffffffffffffffffffffffffffffffffffffffff16858381518110610488577f4e487b7100000000000000000000000000000000000000000000000000000000600052603260045260246000fd5b602002602001019073ffffffffffffffffffffffffffffffffffffffff16908173ffffffffffffffffffffffffffffffffffffffff16815250508060010180546104d19061126e565b80601f01602080910402602001604051908101604052809291908181526020018280546104fd9061126e565b801561054a5780601f1061051f5761010080835404028352916020019161054a565b820191906000526020600020905b81548152906001019060200180831161052d57829003601f168201915b5050505050848381518110610588577f4e487b7100000000000000000000000000000000000000000000000000000000600052603260045260246000fd5b602002602001018190525080600301548383815181106105d1577f4e487b7100000000000000000000000000000000000000000000000000000000600052603260045260246000fd5b6020026020010181815250505080806105e9906112d1565b915050610338565b508383838397509750975097505050505090919293565b610610610ad9565b6000600160008481526020019081526020016000209050806040518060800160405290816000820180546106439061126e565b80601f016020809104026020016040519081016040528092919081815260200182805461066f9061126e565b80156106bc5780601f10610691576101008083540402835291602001916106bc565b820191906000526020600020905b81548152906001019060200180831161069f57829003601f168201915b505050505081526020016001820180546106d59061126e565b80601f01602080910402602001604051908101604052809291908181526020018280546107019061126e565b801561074e5780601f106107235761010080835404028352916020019161074e565b820191906000526020600020905b81548152906001019060200180831161073157829003601f168201915b505050505081526020016002820160009054906101000a900473ffffffffffffffffffffffffffffffffffffffff1673ffffffffffffffffffffffffffffffffffffffff1673ffffffffffffffffffffffffffffffffffffffff168152602001600382015481525050915050919050565b60016020528060005260406000206000915090508060000180546107e29061126e565b80601f016020809104026020016040519081016040528092919081815260200182805461080e9061126e565b801561085b5780601f106108305761010080835404028352916020019161085b565b820191906000526020600020905b81548152906001019060200180831161083e57829003601f168201915b5050505050908060010180546108709061126e565b80601f016020809104026020016040519081016040528092919081815260200182805461089c9061126e565b80156108e95780601f106108be576101008083540402835291602001916108e9565b820191906000526020600020905b8154815290600101906020018083116108cc57829003601f168201915b5050505050908060020160009054906101000a900473ffffffffffffffffffffffffffffffffffffffff16908060030154905084565b60008054905090565b600080600081548092919061093c906112d1565b91905055905060006001600080548152602001908152602001600020905083816000019080519060200190610972929190610b17565b508281600101908051906020019061098b929190610b17565b5060008160030181905550338160020160006101000a81548173ffffffffffffffffffffffffffffffffffffffff021916908373ffffffffffffffffffffffffffffffffffffffff1602179055505092915050565b60006001600083815260200190815260200160002090506001816003016000828254610a0c919061119a565b925050819055505050565b610aad81604051602401610a2b9190610fba565b6040516020818303038152906040527f41304fac000000000000000000000000000000000000000000000000000000007bffffffffffffffffffffffffffffffffffffffffffffffffffffffff19166020820180517bffffffffffffffffffffffffffffffffffffffffffffffffffffffff8381831617835250505050610ab0565b50565b60008151905060006a636f6e736f6c652e6c6f679050602083016000808483855afa5050505050565b60405180608001604052806060815260200160608152602001600073ffffffffffffffffffffffffffffffffffffffff168152602001600081525090565b828054610b239061126e565b90600052602060002090601f016020900481019282610b455760008555610b8c565b82601f10610b5e57805160ff1916838001178555610b8c565b82800160010185558215610b8c579182015b82811115610b8b578251825591602001919060010190610b70565b5b509050610b999190610b9d565b5090565b5b80821115610bb6576000816000905550600101610b9e565b5090565b6000610bcd610bc884611091565b61106c565b905082815260208101848484011115610be557600080fd5b610bf084828561122c565b509392505050565b600082601f830112610c0957600080fd5b8135610c19848260208601610bba565b91505092915050565b600081359050610c31816113b8565b92915050565b60008060408385031215610c4a57600080fd5b600083013567ffffffffffffffff811115610c6457600080fd5b610c7085828601610bf8565b925050602083013567ffffffffffffffff811115610c8d57600080fd5b610c9985828601610bf8565b9150509250929050565b600060208284031215610cb557600080fd5b6000610cc384828501610c22565b91505092915050565b6000610cd88383610d10565b60208301905092915050565b6000610cf08383610e5f565b905092915050565b6000610d048383610f3b565b60208301905092915050565b610d19816111f0565b82525050565b610d28816111f0565b82525050565b6000610d39826110f2565b610d438185611145565b9350610d4e836110c2565b8060005b83811015610d7f578151610d668882610ccc565b9750610d718361111e565b925050600181019050610d52565b5085935050505092915050565b6000610d97826110fd565b610da18185611156565b935083602082028501610db3856110d2565b8060005b85811015610def5784840389528151610dd08582610ce4565b9450610ddb8361112b565b925060208a01995050600181019050610db7565b50829750879550505050505092915050565b6000610e0c82611108565b610e168185611167565b9350610e21836110e2565b8060005b83811015610e52578151610e398882610cf8565b9750610e4483611138565b925050600181019050610e25565b5085935050505092915050565b6000610e6a82611113565b610e748185611178565b9350610e8481856020860161123b565b610e8d816113a7565b840191505092915050565b6000610ea382611113565b610ead8185611189565b9350610ebd81856020860161123b565b610ec6816113a7565b840191505092915050565b60006080830160008301518482036000860152610eee8282610e5f565b91505060208301518482036020860152610f088282610e5f565b9150506040830151610f1d6040860182610d10565b506060830151610f306060860182610f3b565b508091505092915050565b610f4481611222565b82525050565b610f5381611222565b82525050565b60006080820190508181036000830152610f738187610d8c565b90508181036020830152610f878186610d2e565b90508181036040830152610f9b8185610d8c565b90508181036060830152610faf8184610e01565b905095945050505050565b60006020820190508181036000830152610fd48184610e98565b905092915050565b60006080820190508181036000830152610ff68187610e98565b9050818103602083015261100a8186610e98565b90506110196040830185610d1f565b6110266060830184610f4a565b95945050505050565b600060208201905081810360008301526110498184610ed1565b905092915050565b60006020820190506110666000830184610f4a565b92915050565b6000611076611087565b905061108282826112a0565b919050565b6000604051905090565b600067ffffffffffffffff8211156110ac576110ab611378565b5b6110b5826113a7565b9050602081019050919050565b6000819050602082019050919050565b6000819050602082019050919050565b6000819050602082019050919050565b600081519050919050565b600081519050919050565b600081519050919050565b600081519050919050565b6000602082019050919050565b6000602082019050919050565b6000602082019050919050565b600082825260208201905092915050565b600082825260208201905092915050565b600082825260208201905092915050565b600082825260208201905092915050565b600082825260208201905092915050565b60006111a582611222565b91506111b083611222565b9250827fffffffffffffffffffffffffffffffffffffffffffffffffffffffffffffffff038211156111e5576111e461131a565b5b828201905092915050565b60006111fb82611202565b9050919050565b600073ffffffffffffffffffffffffffffffffffffffff82169050919050565b6000819050919050565b82818337600083830152505050565b60005b8381101561125957808201518184015260208101905061123e565b83811115611268576000848401525b50505050565b6000600282049050600182168061128657607f821691505b6020821081141561129a57611299611349565b5b50919050565b6112a9826113a7565b810181811067ffffffffffffffff821117156112c8576112c7611378565b5b80604052505050565b60006112dc82611222565b91507fffffffffffffffffffffffffffffffffffffffffffffffffffffffffffffffff82141561130f5761130e61131a565b5b600182019050919050565b7f4e487b7100000000000000000000000000000000000000000000000000000000600052601160045260246000fd5b7f4e487b7100000000000000000000000000000000000000000000000000000000600052602260045260246000fd5b7f4e487b7100000000000000000000000000000000000000000000000000000000600052604160045260246000fd5b6000601f19601f8301169050919050565b6113c181611222565b81146113cc57600080fd5b5056fea2646970667358221220eed28a0e374ee99b2b2c68a28eb1feaa13e97af89a001cb7a4bf20bdc4e431cf64736f6c63430008040033",
  "linkReferences": {},
  "deployedLinkReferences": {}
}