{
  "_format": "hh-sol-artifact-1",
  "contractName": "Image",
  "sourceName": "contracts/Image.sol",
  "abi": [
    {
      "inputs": [],
      "stateMutability": "nonpayable",
      "type": "constructor"
    },
    {
      "inputs": [
        {
          "internalType": "uint256",
          "name": "id",
          "type": "uint256"
        }
      ],
      "name": "getImage",
      "outputs": [
        {
          "internalType": "string",
          "name": "",
          "type": "string"
        }
      ],
      "stateMutability": "view",
      "type": "function"
    },
    {
      "inputs": [],
      "name": "getImages",
      "outputs": [
        {
          "internalType": "string[]",
          "name": "",
          "type": "string[]"
        }
      ],
      "stateMutability": "view",
      "type": "function"
    },
    {
      "inputs": [],
      "name": "getTotalImages",
      "outputs": [
        {
          "internalType": "uint256",
          "name": "",
          "type": "uint256"
        }
      ],
      "stateMutability": "view",
      "type": "function"
    },
    {
      "inputs": [
        {
          "internalType": "uint256",
          "name": "",
          "type": "uint256"
        }
      ],
      "name": "images",
      "outputs": [
        {
          "internalType": "string",
          "name": "name",
          "type": "string"
        },
        {
          "internalType": "string",
          "name": "url",
          "type": "string"
        },
        {
          "internalType": "address",
          "name": "uploader",
          "type": "address"
        },
        {
          "internalType": "uint256",
          "name": "likes",
          "type": "uint256"
        }
      ],
      "stateMutability": "view",
      "type": "function"
    },
    {
      "inputs": [
        {
          "internalType": "uint256",
          "name": "id",
          "type": "uint256"
        }
      ],
      "name": "likeImage",
      "outputs": [],
      "stateMutability": "nonpayable",
      "type": "function"
    },
    {
      "inputs": [
        {
          "internalType": "string",
          "name": "name",
          "type": "string"
        },
        {
          "internalType": "string",
          "name": "url",
          "type": "string"
        }
      ],
      "name": "uploadImage",
      "outputs": [
        {
          "internalType": "uint256",
          "name": "id",
          "type": "uint256"
        }
      ],
      "stateMutability": "nonpayable",
      "type": "function"
    }
  ],
  "bytecode": "0x60806040523480156200001157600080fd5b506200005d6040518060400160405280601b81526020017f496d61676520636f6e747261637420636f6e73747275637465642100000000008152506200006360201b620005e41760201c565b620001f7565b62000103816040516024016200007a919062000170565b6040516020818303038152906040527f41304fac000000000000000000000000000000000000000000000000000000007bffffffffffffffffffffffffffffffffffffffffffffffffffffffff19166020820180517bffffffffffffffffffffffffffffffffffffffffffffffffffffffff83818316178352505050506200010660201b60201c565b50565b60008151905060006a636f6e736f6c652e6c6f679050602083016000808483855afa5050505050565b60006200013c8262000194565b6200014881856200019f565b93506200015a818560208601620001b0565b6200016581620001e6565b840191505092915050565b600060208201905081810360008301526200018c81846200012f565b905092915050565b600081519050919050565b600082825260208201905092915050565b60005b83811015620001d0578082015181840152602081019050620001b3565b83811115620001e0576000848401525b50505050565b6000601f19601f8301169050919050565b610d4d80620002076000396000f3fe608060405234801561001057600080fd5b50600436106100625760003560e01c806311498334146100675780632607aafa1461008557806384856482146100b55780639a4661f8146100e8578063a91b831414610106578063f0e2e50b14610136575b600080fd5b61006f610152565b60405161007c9190610974565b60405180910390f35b61009f600480360381019061009a9190610832565b6102de565b6040516100ac9190610996565b60405180910390f35b6100cf60048036038101906100ca9190610832565b61038c565b6040516100df94939291906109b8565b60405180910390f35b6100f06104ec565b6040516100fd9190610a0b565b60405180910390f35b610120600480360381019061011b91906107c6565b6104f5565b60405161012d9190610a0b565b60405180910390f35b610150600480360381019061014b9190610832565b6105ad565b005b60606000805467ffffffffffffffff811115610197577f4e487b7100000000000000000000000000000000000000000000000000000000600052604160045260246000fd5b6040519080825280602002602001820160405280156101ca57816020015b60608152602001906001900390816101b55790505b50905060005b6000548110156102d657600060016000838152602001908152602001600020905080600101805461020090610bb6565b80601f016020809104026020016040519081016040528092919081815260200182805461022c90610bb6565b80156102795780601f1061024e57610100808354040283529160200191610279565b820191906000526020600020905b81548152906001019060200180831161025c57829003601f168201915b50505050508383815181106102b7577f4e487b7100000000000000000000000000000000000000000000000000000000600052603260045260246000fd5b60200260200101819052505080806102ce90610c19565b9150506101d0565b508091505090565b6060600060016000848152602001908152602001600020905080600101805461030690610bb6565b80601f016020809104026020016040519081016040528092919081815260200182805461033290610bb6565b801561037f5780601f106103545761010080835404028352916020019161037f565b820191906000526020600020905b81548152906001019060200180831161036257829003601f168201915b5050505050915050919050565b60016020528060005260406000206000915090508060000180546103af90610bb6565b80601f01602080910402602001604051908101604052809291908181526020018280546103db90610bb6565b80156104285780601f106103fd57610100808354040283529160200191610428565b820191906000526020600020905b81548152906001019060200180831161040b57829003601f168201915b50505050509080600101805461043d90610bb6565b80601f016020809104026020016040519081016040528092919081815260200182805461046990610bb6565b80156104b65780601f1061048b576101008083540402835291602001916104b6565b820191906000526020600020905b81548152906001019060200180831161049957829003601f168201915b5050505050908060020160009054906101000a900473ffffffffffffffffffffffffffffffffffffffff16908060030154905084565b60008054905090565b600080600081548092919061050990610c19565b9190505590506000600160008054815260200190815260200160002090508381600001908051906020019061053f9291906106a6565b50828160010190805190602001906105589291906106a6565b5060008160030181905550338160020160006101000a81548173ffffffffffffffffffffffffffffffffffffffff021916908373ffffffffffffffffffffffffffffffffffffffff1602179055505092915050565b600060016000838152602001908152602001600020905060018160030160008282546105d99190610ae2565b925050819055505050565b61067a816040516024016105f89190610996565b6040516020818303038152906040527f41304fac000000000000000000000000000000000000000000000000000000007bffffffffffffffffffffffffffffffffffffffffffffffffffffffff19166020820180517bffffffffffffffffffffffffffffffffffffffffffffffffffffffff838183161783525050505061067d565b50565b60008151905060006a636f6e736f6c652e6c6f679050602083016000808483855afa5050505050565b8280546106b290610bb6565b90600052602060002090601f0160209004810192826106d4576000855561071b565b82601f106106ed57805160ff191683800117855561071b565b8280016001018555821561071b579182015b8281111561071a5782518255916020019190600101906106ff565b5b509050610728919061072c565b5090565b5b8082111561074557600081600090555060010161072d565b5090565b600061075c61075784610a4b565b610a26565b90508281526020810184848401111561077457600080fd5b61077f848285610b74565b509392505050565b600082601f83011261079857600080fd5b81356107a8848260208601610749565b91505092915050565b6000813590506107c081610d00565b92915050565b600080604083850312156107d957600080fd5b600083013567ffffffffffffffff8111156107f357600080fd5b6107ff85828601610787565b925050602083013567ffffffffffffffff81111561081c57600080fd5b61082885828601610787565b9150509250929050565b60006020828403121561084457600080fd5b6000610852848285016107b1565b91505092915050565b600061086783836108f3565b905092915050565b61087881610b38565b82525050565b600061088982610a8c565b6108938185610aaf565b9350836020820285016108a585610a7c565b8060005b858110156108e157848403895281516108c2858261085b565b94506108cd83610aa2565b925060208a019950506001810190506108a9565b50829750879550505050505092915050565b60006108fe82610a97565b6109088185610ac0565b9350610918818560208601610b83565b61092181610cef565b840191505092915050565b600061093782610a97565b6109418185610ad1565b9350610951818560208601610b83565b61095a81610cef565b840191505092915050565b61096e81610b6a565b82525050565b6000602082019050818103600083015261098e818461087e565b905092915050565b600060208201905081810360008301526109b0818461092c565b905092915050565b600060808201905081810360008301526109d2818761092c565b905081810360208301526109e6818661092c565b90506109f5604083018561086f565b610a026060830184610965565b95945050505050565b6000602082019050610a206000830184610965565b92915050565b6000610a30610a41565b9050610a3c8282610be8565b919050565b6000604051905090565b600067ffffffffffffffff821115610a6657610a65610cc0565b5b610a6f82610cef565b9050602081019050919050565b6000819050602082019050919050565b600081519050919050565b600081519050919050565b6000602082019050919050565b600082825260208201905092915050565b600082825260208201905092915050565b600082825260208201905092915050565b6000610aed82610b6a565b9150610af883610b6a565b9250827fffffffffffffffffffffffffffffffffffffffffffffffffffffffffffffffff03821115610b2d57610b2c610c62565b5b828201905092915050565b6000610b4382610b4a565b9050919050565b600073ffffffffffffffffffffffffffffffffffffffff82169050919050565b6000819050919050565b82818337600083830152505050565b60005b83811015610ba1578082015181840152602081019050610b86565b83811115610bb0576000848401525b50505050565b60006002820490506001821680610bce57607f821691505b60208210811415610be257610be1610c91565b5b50919050565b610bf182610cef565b810181811067ffffffffffffffff82111715610c1057610c0f610cc0565b5b80604052505050565b6000610c2482610b6a565b91507fffffffffffffffffffffffffffffffffffffffffffffffffffffffffffffffff821415610c5757610c56610c62565b5b600182019050919050565b7f4e487b7100000000000000000000000000000000000000000000000000000000600052601160045260246000fd5b7f4e487b7100000000000000000000000000000000000000000000000000000000600052602260045260246000fd5b7f4e487b7100000000000000000000000000000000000000000000000000000000600052604160045260246000fd5b6000601f19601f8301169050919050565b610d0981610b6a565b8114610d1457600080fd5b5056fea264697066735822122076cdb11bb70495a97f9580422377266ac15a387b0c3524c13d280f8d092ef89f64736f6c63430008040033",
  "linkReferences": {},
  "deployedLinkReferences": {}
}